{"abi":[{"type":"fallback","stateMutability":"payable"},{"type":"receive","stateMutability":"payable"},{"type":"function","name":"ETH_ADDRESS","inputs":[],"outputs":[{"name":"","type":"address","internalType":"address"}],"stateMutability":"view"},{"type":"function","name":"approveToken","inputs":[{"name":"token","type":"address","internalType":"address"}],"outputs":[],"stateMutability":"nonpayable"},{"type":"function","name":"approvedTokenList","inputs":[{"name":"","type":"uint256","internalType":"uint256"}],"outputs":[{"name":"","type":"address","internalType":"address"}],"stateMutability":"view"},{"type":"function","name":"approvedTokens","inputs":[{"name":"","type":"address","internalType":"address"}],"outputs":[{"name":"","type":"bool","internalType":"bool"}],"stateMutability":"view"},{"type":"function","name":"borrowAsset","inputs":[{"name":"token","type":"address","internalType":"address"},{"name":"amount","type":"uint256","internalType":"uint256"}],"outputs":[],"stateMutability":"nonpayable"},{"type":"function","name":"ethBalance","inputs":[],"outputs":[{"name":"","type":"uint256","internalType":"uint256"}],"stateMutability":"view"},{"type":"function","name":"getApprovedTokensCount","inputs":[],"outputs":[{"name":"","type":"uint256","internalType":"uint256"}],"stateMutability":"view"},{"type":"function","name":"getContractsTokenBalance","inputs":[{"name":"token","type":"address","internalType":"address"}],"outputs":[{"name":"","type":"uint256","internalType":"uint256"}],"stateMutability":"view"},{"type":"function","name":"getLatestPrice","inputs":[{"name":"token","type":"address","internalType":"address"}],"outputs":[{"name":"","type":"uint256","internalType":"uint256"}],"stateMutability":"view"},{"type":"function","name":"getUsdValue","inputs":[{"name":"token","type":"address","internalType":"address"},{"name":"amount","type":"uint256","internalType":"uint256"}],"outputs":[{"name":"usdValue","type":"uint256","internalType":"uint256"}],"stateMutability":"view"},{"type":"function","name":"getUser","inputs":[{"name":"user","type":"address","internalType":"address"}],"outputs":[{"name":"stakedAsset","type":"address","internalType":"address"},{"name":"stakedAmount","type":"uint256","internalType":"uint256"},{"name":"debtAsset","type":"address","internalType":"address"},{"name":"debtAmount","type":"uint256","internalType":"uint256"}],"stateMutability":"view"},{"type":"function","name":"isTokenApproved","inputs":[{"name":"token","type":"address","internalType":"address"}],"outputs":[{"name":"","type":"bool","internalType":"bool"}],"stateMutability":"view"},{"type":"function","name":"liquidate","inputs":[{"name":"borrower","type":"address","internalType":"address"},{"name":"repayAmount","type":"uint256","internalType":"uint256"}],"outputs":[],"stateMutability":"nonpayable"},{"type":"function","name":"owner","inputs":[],"outputs":[{"name":"","type":"address","internalType":"address"}],"stateMutability":"view"},{"type":"function","name":"priceFeeds","inputs":[{"name":"","type":"address","internalType":"address"}],"outputs":[{"name":"","type":"address","internalType":"address"}],"stateMutability":"view"},{"type":"function","name":"renounceOwnership","inputs":[],"outputs":[],"stateMutability":"nonpayable"},{"type":"function","name":"repayAsset","inputs":[{"name":"token","type":"address","internalType":"address"},{"name":"repayAmount","type":"uint256","internalType":"uint256"}],"outputs":[],"stateMutability":"nonpayable"},{"type":"function","name":"revokeTokenApproval","inputs":[{"name":"token","type":"address","internalType":"address"}],"outputs":[],"stateMutability":"nonpayable"},{"type":"function","name":"setFeed","inputs":[{"name":"token","type":"address","internalType":"address"},{"name":"feed","type":"address","internalType":"address"}],"outputs":[],"stateMutability":"nonpayable"},{"type":"function","name":"setLiquidationBonus","inputs":[{"name":"_bonus","type":"uint256","internalType":"uint256"}],"outputs":[],"stateMutability":"nonpayable"},{"type":"function","name":"setltv","inputs":[{"name":"_ltv","type":"uint256","internalType":"uint256"}],"outputs":[],"stateMutability":"nonpayable"},{"type":"function","name":"stakeEth","inputs":[],"outputs":[],"stateMutability":"payable"},{"type":"function","name":"tokenIndex","inputs":[{"name":"","type":"address","internalType":"address"}],"outputs":[{"name":"","type":"uint256","internalType":"uint256"}],"stateMutability":"view"},{"type":"function","name":"transferOwnership","inputs":[{"name":"newOwner","type":"address","internalType":"address"}],"outputs":[],"stateMutability":"nonpayable"},{"type":"function","name":"users","inputs":[{"name":"","type":"address","internalType":"address"}],"outputs":[{"name":"stakedAsset","type":"address","internalType":"address"},{"name":"stakedAmount","type":"uint256","internalType":"uint256"},{"name":"debtAsset","type":"address","internalType":"address"},{"name":"debtAmount","type":"uint256","internalType":"uint256"}],"stateMutability":"view"},{"type":"function","name":"withdrawCollateralEth","inputs":[{"name":"amount","type":"uint256","internalType":"uint256"}],"outputs":[],"stateMutability":"nonpayable"},{"type":"event","name":"BonusUpdated","inputs":[{"name":"newBonus","type":"uint256","indexed":false,"internalType":"uint256"}],"anonymous":false},{"type":"event","name":"ETHCollateralWithdrawn","inputs":[{"name":"user","type":"address","indexed":true,"internalType":"address"},{"name":"amount","type":"uint256","indexed":false,"internalType":"uint256"}],"anonymous":false},{"type":"event","name":"EthStaked","inputs":[{"name":"user","type":"address","indexed":true,"internalType":"address"},{"name":"ethAmount","type":"uint256","indexed":false,"internalType":"uint256"}],"anonymous":false},{"type":"event","name":"Liquidation","inputs":[{"name":"liquidator","type":"address","indexed":true,"internalType":"address"},{"name":"borrower","type":"address","indexed":true,"internalType":"address"},{"name":"repayAmount","type":"uint256","indexed":false,"internalType":"uint256"},{"name":"seizedCollateral","type":"uint256","indexed":false,"internalType":"uint256"}],"anonymous":false},{"type":"event","name":"MockUsdtAddressUpdated","inputs":[{"name":"newAddress","type":"address","indexed":false,"internalType":"address"}],"anonymous":false},{"type":"event","name":"NewTokenApproved","inputs":[{"name":"token","type":"address","indexed":true,"internalType":"address"}],"anonymous":false},{"type":"event","name":"OwnershipTransferred","inputs":[{"name":"previousOwner","type":"address","indexed":true,"internalType":"address"},{"name":"newOwner","type":"address","indexed":true,"internalType":"address"}],"anonymous":false},{"type":"event","name":"PriceFeedUpdated","inputs":[{"name":"token","type":"address","indexed":true,"internalType":"address"},{"name":"feed","type":"address","indexed":true,"internalType":"address"}],"anonymous":false},{"type":"event","name":"TokenRevoked","inputs":[{"name":"token","type":"address","indexed":true,"internalType":"address"}],"anonymous":false},{"type":"event","name":"USDBorrowed","inputs":[{"name":"user","type":"address","indexed":true,"internalType":"address"},{"name":"usdAmount","type":"uint256","indexed":false,"internalType":"uint256"}],"anonymous":false},{"type":"event","name":"USDRepaid","inputs":[{"name":"user","type":"address","indexed":true,"internalType":"address"},{"name":"usdAmount","type":"uint256","indexed":false,"internalType":"uint256"}],"anonymous":false},{"type":"event","name":"ltvUpdated","inputs":[{"name":"newltv","type":"uint256","indexed":false,"internalType":"uint256"}],"anonymous":false},{"type":"error","name":"BadBonus","inputs":[{"name":"bonus","type":"uint256","internalType":"uint256"}]},{"type":"error","name":"Badltv","inputs":[{"name":"ltv","type":"uint256","internalType":"uint256"}]},{"type":"error","name":"BorrowLimitExceeded","inputs":[{"name":"amount","type":"uint256","internalType":"uint256"},{"name":"availableToBorrow","type":"uint256","internalType":"uint256"}]},{"type":"error","name":"BorrowedAmountNotFullyRepaid","inputs":[{"name":"balance","type":"uint256","internalType":"uint256"}]},{"type":"error","name":"FeedDataNotFinalized","inputs":[]},{"type":"error","name":"InsufficientCollateral","inputs":[]},{"type":"error","name":"InsufficientEthBalance","inputs":[]},{"type":"error","name":"InsufficientPoolBalance","inputs":[{"name":"poolBalance","type":"uint256","internalType":"uint256"},{"name":"requestedAmount","type":"uint256","internalType":"uint256"}]},{"type":"error","name":"InvalidAddress","inputs":[{"name":"addr","type":"address","internalType":"address"}]},{"type":"error","name":"InvalidAmount","inputs":[]},{"type":"error","name":"InvalidAsset","inputs":[{"name":"asset","type":"address","internalType":"address"}]},{"type":"error","name":"InvalidCloseFactor","inputs":[]},{"type":"error","name":"InvalidDecimals","inputs":[]},{"type":"error","name":"InvalidPriceData","inputs":[{"name":"price","type":"int256","internalType":"int256"}]},{"type":"error","name":"NoActivePosition","inputs":[]},{"type":"error","name":"NoCollateralProvided","inputs":[]},{"type":"error","name":"NotEnoughCollateral","inputs":[{"name":"collateralBalance","type":"uint256","internalType":"uint256"},{"name":"userInput","type":"uint256","internalType":"uint256"}]},{"type":"error","name":"OverPaymentNotSupported","inputs":[{"name":"amountPaid","type":"uint256","internalType":"uint256"},{"name":"expectedAmount","type":"uint256","internalType":"uint256"}]},{"type":"error","name":"OwnableInvalidOwner","inputs":[{"name":"owner","type":"address","internalType":"address"}]},{"type":"error","name":"OwnableUnauthorizedAccount","inputs":[{"name":"account","type":"address","internalType":"address"}]},{"type":"error","name":"PositionHealthy","inputs":[]},{"type":"error","name":"ReentrancyGuardReentrantCall","inputs":[]},{"type":"error","name":"StalePriceData","inputs":[{"name":"data","type":"uint256","internalType":"uint256"}]},{"type":"error","name":"TokenAlreadyApproved","inputs":[{"name":"token","type":"address","internalType":"address"}]},{"type":"error","name":"TokenNotApproved","inputs":[{"name":"token","type":"address","internalType":"address"}]},{"type":"error","name":"TokenTransferFailed","inputs":[{"name":"token","type":"address","internalType":"address"},{"name":"to","type":"address","internalType":"address"},{"name":"amount","type":"uint256","internalType":"uint256"}]},{"type":"error","name":"TransferFailed","inputs":[{"name":"token","type":"address","internalType":"address"},{"name":"sender","type":"address","internalType":"address"},{"name":"amount","type":"uint256","internalType":"uint256"}]}],"bytecode":{"object":"0x6080806040523460aa5760017f9b779b17422d0df92223018b32b4d1fa46e071723d6817e2486d003becc55f005533156095575f8054336001600160a01b03198216811783556040519290916001600160a01b0316907f8be0079c531659141344cd1fd0a4f28419497f9722a3daafe3b4186f6b6457e09080a3611388806006556007556101f4600855611a5090816100af8239f35b631e4fbdf760e01b81525f6004820152602490fd5b5f80fdfe608060405260048036101561001a575b50361561001857005b005b5f3560e01c80630f07645a1461118657806315c926781461103d57806316345f181461101a57806328842d4f14610fa45780633e4e1c2714610f1157806340b1eb1014610e83578063427f91a614610e4c5780634bb55d5c14610e2f5780634e6630b014610e145780636d1ea3fa14610dd75780636f77926b146109bd578063715018a614610d805780637a5f0dc414610ce957806380b2edd814610be257806388d595db14610b4b5780638da5cb5b14610b245780639776f4a514610ae35780639d93d35214610a9e5780639dcb511a14610a65578063a734f06e14610a37578063a87430ba146109bd578063b8bc9cab14610799578063bcbaf48714610332578063c660d11214610303578063e1bf0a4b146101ca5763f2fde38b0361000f57346101c65760203660031901126101c657610155611397565b61015d61193f565b6001600160a01b039081169182156101af57505f54826bffffffffffffffffffffffff60a01b8216175f55167f8be0079c531659141344cd1fd0a4f28419497f9722a3daafe3b4186f6b6457e05f80a3005b6024905f60405191631e4fbdf760e01b8352820152fd5b5f80fd5b50346101c65760203660031901126101c6578035906101e7611790565b6101f0826117e9565b335f52600160205260405f206003810154806102ec57506001019081548084116102cf57508247106102b25750610227823361196a565b610232828254611417565b8091551561027a575b6040519081527f5b0743acabce0ea09498b3c2598ed444f80ef6513a2029d7d9aaed87064d1edb60203392a260015f805160206119fb83398151915255005b335f90815260016020819052604082206002810180546001600160a01b0319908116909155600382018490558154168155015561023b565b60449083476040519263ce9514f960e01b84528301526024820152fd5b60405163768063db60e01b81529182015260248101839052604490fd5b82602491604051916340a636fb60e01b8352820152fd5b346101c65760403660031901126101c657602061032a610321611397565b602435906116b7565b604051908152f35b50346101c65760403660031901126101c65761034c611397565b90610355611790565b61035e826117bf565b6103696024356117e9565b6001600160a01b0382165f81815260016020526040902060038101549193909115610788578154600183015492906001600160a01b03166103aa84826116b7565b9460018060a01b036002840154166003840154966103c888836116b7565b611d4c7e08bcf64e5ec10ee1d37d7960cd589c31b2b8ddbaea04a462d9a2568fe7f85a831181021561271002156101c657612710908302041015610777576007548015801561076c575b61075b57805f1904891181021561271002156101c65760085461271001918261271011610748577e068db8bac710cb295e9e1b089a027525460aa64c2f837b4a2339c0ebedfa43811161271002158302156101c6576127108391020461047784611424565b917812725dd1d243aba0e75fe645cc4873f9e65afe688c928e1f218211670de0b6b3a764000002158302156101c6576024359a612710828202048c11610739575b505081670de0b6b3a76400008202048a11610725575b50508715610714576104e088836116b7565b90805f1904821181021561271002156101c65761271091020461050284611424565b907812725dd1d243aba0e75fe645cc4873f9e65afe688c928e1f218111670de0b6b3a764000002158202156101c657670de0b6b3a764000002049580871161070c575b5073eeeeeeeeeeeeeeeeeeeeeeeeeeeeeeeeeeeeeeee8093146106f4575b604080516323b872dd60e01b815233848201908152306020828101919091529281018a90529092839182905f90829060600103925af19081156106e9575f916106ba575b50156106815750906001916105c0866003840154611417565b6003830155828060a01b0382541614610672575b6105e18483830154611417565b918291015515610631575b5060405191825260208201527f4ecae3269f800df64b16cb9f6f8b0b507018888521d1cff0841823e44bc0b00d60403392a360015f805160206119fb83398151915255005b6001600160a01b03165f90815260016020819052604082206002810180546001600160a01b031990811690915560038201849055815416815501555f6105ec565b61067c843361196a565b6105d4565b6002830154604080516317e3057d60e31b81526001600160a01b0390921692820192835233602084015282018790529081900360600190fd5b6106dc915060203d6020116106e2575b6106d48183611604565b81019061169f565b5f6105a7565b503d6106ca565b6040513d5f823e3d90fd5b854710156105635750604051635b6b73eb60e11b8152fd5b95505f610545565b604051633a23d82560e01b81528390fd5b670de0b6b3a7640000020497505f806104ce565b61271091020499505f806104b8565b601185634e487b7160e01b5f525260245ffd5b60405163ee0bdbdf60e01b81528490fd5b506127108111610412565b604051630879983f60e21b81528390fd5b604051630cf2fcaf60e21b81528390fd5b50346101c65760403660031901126101c6576107b3611397565b602435916107c0826117bf565b6107c9836117e9565b6107d282611802565b335f9081526001602090815260409091206003810154909391929190156109ad57335f526001835260018060a01b039081600260405f20015416828216809103610996575085610821916116b7565b94600285019260038385541696019182549661083d88826116b7565b97888a116109795750604080516323b872dd60e01b81523385820190815230602082015291820184905291889183919082905f90829060600103925af19081156106e9575f9161095c575b50156109245750506108a7866108a18554948516611424565b96611417565b94670de0b6b3a76400007812725dd1d243aba0e75fe645cc4873f9e65afe688c928e1f2187118102158202156101c6577fb7efcc12f3d3e74e33995ff303aca806b9428989809e60a4e5a4d465832966e496020480915515610911575b50506040519283523392a2005b6001600160a01b03191690555f80610904565b8454604080516317e3057d60e31b81529186166001600160a01b03169382019384523360208501528301919091529081900360600190fd5b6109739150873d89116106e2576106d48183611604565b5f610888565b8360449184604051926399bcd81360e01b84528301526024820152fd5b83602491604051916337bce3c560e11b8352820152fd5b50604051630cf2fcaf60e21b8152fd5b346101c65760203660031901126101c6576001600160a01b03806109df611397565b165f52600160205260405f20610a3382825416916003600182015494600283015416910154906040519485948590606092959493608083019660018060a01b03809316845260208401521660408201520152565b0390f35b346101c6575f3660031901126101c657602060405173eeeeeeeeeeeeeeeeeeeeeeeeeeeeeeeeeeeeeeee8152f35b346101c65760203660031901126101c65760206001600160a01b0380610a89611397565b165f526002825260405f205416604051908152f35b346101c65760203660031901126101c657610ab7611397565b610ac0816117bf565b60018060a01b03165f526003602052602060ff60405f2054166040519015158152f35b50346101c65760203660031901126101c657356005548110156101c657610b0b6020916113ad565b905460405160039290921b1c6001600160a01b03168152f35b346101c6575f3660031901126101c6575f546040516001600160a01b039091168152602090f35b50346101c65760203660031901126101c657803590610b6861193f565b610b71826117e9565b81158015610bd7575b8015610bcc575b610bb6577fb1af578d18aef46afafbd25487a95eff1077a6e04c89e71b82093b998b3a7e4b60208380600655604051908152a1005b6024916040519163a072825560e01b8352820152fd5b50611d4c8211610b81565b506127108211610b7a565b50346101c65760203660031901126101c657610bfc611397565b610c0461193f565b610c0d816117bf565b6001600160a01b0381165f8181526003602052604090205490929060ff16610cd157825f52600360205260405f20600160ff1982541617905560055490806020528160405f205568010000000000000000821015610cbe575090610c7a826001610c9894016005556113ad565b90919060018060a01b038084549260031b9316831b921b1916179055565b7f026283404367cffc0443317066c3531d3db2306ad6e65aa1bee91dbe98c615a15f80a2005b604190634e487b7160e01b5f525260245ffd5b604051637664204760e01b8152908101839052602490fd5b505f3660031901126101c6573415610d7157335f52600160205260405f2060018101610d163482546113f6565b905573eeeeeeeeeeeeeeeeeeeeeeeeeeeeeeeeeeeeeeee6bffffffffffffffffffffffff60a01b8254161790556040513481527f1c0917c3a343a300b56473c59fa8355d3326f2c73472679a5b4cd5d6e0390c8060203392a2005b60405163580b5f2f60e11b8152fd5b346101c6575f3660031901126101c657610d9861193f565b5f80546001600160a01b0319811682556001600160a01b03167f8be0079c531659141344cd1fd0a4f28419497f9722a3daafe3b4186f6b6457e08280a3005b346101c65760203660031901126101c6576001600160a01b03610df8611397565b165f526003602052602060ff60405f2054166040519015158152f35b346101c6575f3660031901126101c657602047604051908152f35b346101c6575f3660031901126101c6576020600554604051908152f35b50346101c65760203660031901126101c6576001600160a01b03610e6e611397565b165f52602052602060405f2054604051908152f35b346101c65760403660031901126101c657610e9c611397565b6001600160a01b0360243581811692908381036101c657610ecd90610ebf61193f565b610ec8836117bf565b6117bf565b165f81815260026020526040812080546001600160a01b031916841790557fa8abe0398416476db5b05737cd4da3b3cbde5012d978a6a6c3fd49d3217535369080a3005b50346101c657602090816003193601126101c65781610f2e611397565b91610f38836117bf565b6040516370a0823160e01b8152309181019190915291829060249082906001600160a01b03165afa9081156106e9575f91610f77575b50604051908152f35b90508181813d8311610f9d575b610f8e8183611604565b810103126101c657515f610f6e565b503d610f84565b50346101c65760203660031901126101c657803590610fc161193f565b610fca826117e9565b6127108211611004577f04a7ca0e55f887a637b560614f621b92b79423e20152fea70bc4be66edaee3d660208380600855604051908152a1005b602491604051916311715eab60e21b8352820152fd5b346101c65760203660031901126101c657602061032a611038611397565b611424565b50346101c657602090816003193601126101c657611059611397565b9161106261193f565b61106b836117bf565b6001600160a01b039283165f81815260038352604090205490939060ff161561116e575f848152600383526040808220805460ff191690558484529020546005545f19919082810190811161115b57836110c4826113ad565b90549060031b1c1690820361113d575b5050600554801561112a5701906110ea826113ad565b909182549160031b1b19169055600555825f52525f60408120557f45f62f30e7b8439e0da7d8e560fe39d01238091ce9e789e3d12b514edf98acea5f80a2005b603185634e487b7160e01b5f525260245ffd5b61114a81610c7a846113ad565b5f5284845260405f20555f806110d4565b601186634e487b7160e01b5f525260245ffd5b6040516343c90fad60e11b8152808401859052602490fd5b50346101c65760403660031901126101c6576111a0611397565b602435916111ac611790565b6111b5826117bf565b6111be836117e9565b6111c782611802565b335f9081526001602081815260409092209081015491939115611386576111ee823361183c565b8086116113695750806003600292016112088782546113f6565b90550180546001600160a01b0319166001600160a01b0383169081179091556040516370a0823160e01b815230848201528481602481855afa9081156106e9575f9161133c575b5085811061131f5750835f9160446040518094819363a9059cbb60e01b835233898401528a60248401525af19081156106e9575f91611302575b50156112ce57837f5abc9a9c4616711eb03d720e050325118645a3695a5e75b5b10a29e2e217fe03846040519283523392a260015f805160206119fb83398151915255005b6040805163190eecf360e31b81526001600160a01b0390921692820192835233602084015282018490529081906060010390fd5b6113199150843d86116106e2576106d48183611604565b5f611289565b83866044926040519263ce9514f960e01b84528301526024820152fd5b90508481813d8311611362575b6113538183611604565b810103126101c657515f61124f565b503d611349565b83604491876040519263d771d8e960e01b84528301526024820152fd5b60405163580b5f2f60e11b81528390fd5b600435906001600160a01b03821682036101c657565b6005548110156113e25760055f527f036b6384b5eca791c62761152d0c79bb0604c104a5fb6f4eb0703f3154bb3db001905f90565b634e487b7160e01b5f52603260045260245ffd5b9190820180921161140357565b634e487b7160e01b5f52601160045260245ffd5b9190820391821161140357565b61142d816117bf565b60018060a01b038091165f526002602052604090815f20541680156115ee578151633fabe5a360e21b81529160049160a0848481845afa9384156115e4575f945f955f925f9261158e575b505f8713156115775769ffffffffffffffffffff8091169116106115685780158015611553575b61153d5750906020839282519485809263313ce56760e01b82525afa928315611533575f93611502575b50601260ff8416116114f5575050906114ec6114e76114f29361166a565b61167b565b9061168c565b90565b51630692acc560e51b8152fd5b61152591935060203d60201161152c575b61151d8183611604565b810190611651565b915f6114c9565b503d611513565b50513d5f823e3d90fd5b83602491845191633b90dd8b60e01b8352820152fd5b50610e106115618242611417565b101561149f565b5050516375c7761760e11b8152fd5b845163b4e8ae1160e01b8152808701889052602490fd5b965050505060a0843d60a0116115dc575b816115ac60a09383611604565b810103126101c6576115bd8461163a565b60208501516115d360806060880151970161163a565b9095915f611478565b3d915061159f565b82513d5f823e3d90fd5b6024915190634726455360e11b82526004820152fd5b90601f8019910116810190811067ffffffffffffffff82111761162657604052565b634e487b7160e01b5f52604160045260245ffd5b519069ffffffffffffffffffff821682036101c657565b908160209103126101c6575160ff811681036101c65790565b60ff166012039060ff821161140357565b60ff16604d811161140357600a0a90565b8181029291811591840414171561140357565b908160209103126101c6575180151581036101c65790565b906116c182611424565b918215611789576001600160a01b031673eeeeeeeeeeeeeeeeeeeeeeeeeeeeeeeeeeeeeeee810361173d57506012905b601260ff83161161172b576114ec6114e761170b9361166a565b90670de0b6b3a764000091815f190481118202158302156101c657020490565b604051630692acc560e51b8152600490fd5b60206004916040519283809263313ce56760e01b82525afa9081156106e9575f9161176a575b50906116f1565b611783915060203d60201161152c5761151d8183611604565b5f611763565b5050505f90565b5f805160206119fb83398151915260028154146117ad5760029055565b604051633ee5aeb560e01b8152600490fd5b6001600160a01b031680156117d15750565b60249060405190634726455360e11b82526004820152fd5b156117f057565b60405163162908e360e11b8152600490fd5b6001600160a01b03165f8181526003602052604090205460ff16156118245750565b602490604051906343c90fad60e11b82526004820152fd5b6001600160a01b039081165f908152600160208190526040909120908101541561178957818316805f5260026020528260405f20541615611927575061188a828254166001830154906116b7565b60065461271091815f190481118202158302156101c65702049160038201549081155f14611914575050505f5b81811015611789576118c891611417565b90811561190e576118d890611424565b90670de0b6b3a7640000907812725dd1d243aba0e75fe645cc4873f9e65afe688c928e1f2181118202158302156101c657020490565b50505f90565b6002611922930154166116b7565b6118b7565b602490604051906337bce3c560e11b82526004820152fd5b5f546001600160a01b0316330361195257565b60405163118cdaa760e01b8152336004820152602490fd5b6001600160a01b0316905f80808084865af13d156119f5573d67ffffffffffffffff811161162657604051906119aa601f8201601f191660200183611604565b81525f60203d92013e5b156119bd575050565b60649250604051916317e3057d60e31b835273eeeeeeeeeeeeeeeeeeeeeeeeeeeeeeeeeeeeeeee600484015260248301526044820152fd5b6119b456fe9b779b17422d0df92223018b32b4d1fa46e071723d6817e2486d003becc55f00a2646970667358221220e808b4af92bcf77a84b38bcd9733b38938539e823f2e169598bbff46c48d4cd664736f6c63430008190033","linkReferences":{}},"methodIdentifiers":{"ETH_ADDRESS()":"a734f06e","approveToken(address)":"80b2edd8","approvedTokenList(uint256)":"9776f4a5","approvedTokens(address)":"6d1ea3fa","borrowAsset(address,uint256)":"0f07645a","ethBalance()":"4e6630b0","getApprovedTokensCount()":"4bb55d5c","getContractsTokenBalance(address)":"3e4e1c27","getLatestPrice(address)":"16345f18","getUsdValue(address,uint256)":"c660d112","getUser(address)":"6f77926b","isTokenApproved(address)":"9d93d352","liquidate(address,uint256)":"bcbaf487","owner()":"8da5cb5b","priceFeeds(address)":"9dcb511a","renounceOwnership()":"715018a6","repayAsset(address,uint256)":"b8bc9cab","revokeTokenApproval(address)":"15c92678","setFeed(address,address)":"40b1eb10","setLiquidationBonus(uint256)":"28842d4f","setltv(uint256)":"88d595db","stakeEth()":"7a5f0dc4","tokenIndex(address)":"427f91a6","transferOwnership(address)":"f2fde38b","users(address)":"a87430ba","withdrawCollateralEth(uint256)":"e1bf0a4b"},"id":29}