{
    "abi": [
        {
            "type": "constructor",
            "inputs": [
                {
                    "name": "_mockusdtAddress",
                    "type": "address",
                    "internalType": "address"
                }
            ],
            "stateMutability": "nonpayable"
        },
        {
            "type": "function",
            "name": "ETH_PRICE_IN_USD",
            "inputs": [],
            "outputs": [
                {
                    "name": "",
                    "type": "uint256",
                    "internalType": "uint256"
                }
            ],
            "stateMutability": "view"
        },
        {
            "type": "function",
            "name": "LIQUIDATION_THRESHOLD",
            "inputs": [],
            "outputs": [
                {
                    "name": "",
                    "type": "uint256",
                    "internalType": "uint256"
                }
            ],
            "stateMutability": "view"
        },
        {
            "type": "function",
            "name": "LTV",
            "inputs": [],
            "outputs": [
                {
                    "name": "",
                    "type": "uint256",
                    "internalType": "uint256"
                }
            ],
            "stateMutability": "view"
        },
        {
            "type": "function",
            "name": "borrowUsd",
            "inputs": [
                {
                    "name": "amount",
                    "type": "uint256",
                    "internalType": "uint256"
                }
            ],
            "outputs": [
                {
                    "name": "",
                    "type": "uint256",
                    "internalType": "uint256"
                }
            ],
            "stateMutability": "nonpayable"
        },
        {
            "type": "function",
            "name": "getContractUsdBal",
            "inputs": [],
            "outputs": [
                {
                    "name": "",
                    "type": "uint256",
                    "internalType": "uint256"
                }
            ],
            "stateMutability": "view"
        },
        {
            "type": "function",
            "name": "howMuchYouCanStillBorrow",
            "inputs": [
                {
                    "name": "user",
                    "type": "address",
                    "internalType": "address"
                }
            ],
            "outputs": [
                {
                    "name": "",
                    "type": "uint256",
                    "internalType": "uint256"
                }
            ],
            "stateMutability": "view"
        },
        {
            "type": "function",
            "name": "makeVisibleInt",
            "inputs": [
                {
                    "name": "_int",
                    "type": "uint256",
                    "internalType": "uint256"
                }
            ],
            "outputs": [
                {
                    "name": "",
                    "type": "uint256",
                    "internalType": "uint256"
                }
            ],
            "stateMutability": "pure"
        },
        {
            "type": "function",
            "name": "mockusdt",
            "inputs": [],
            "outputs": [
                {
                    "name": "",
                    "type": "address",
                    "internalType": "contract MockUsdt"
                }
            ],
            "stateMutability": "view"
        },
        {
            "type": "function",
            "name": "repayUsd",
            "inputs": [
                {
                    "name": "amount",
                    "type": "uint256",
                    "internalType": "uint256"
                }
            ],
            "outputs": [],
            "stateMutability": "nonpayable"
        },
        {
            "type": "function",
            "name": "stakeEth",
            "inputs": [],
            "outputs": [],
            "stateMutability": "payable"
        },
        {
            "type": "function",
            "name": "users",
            "inputs": [
                {
                    "name": "",
                    "type": "address",
                    "internalType": "address"
                }
            ],
            "outputs": [
                {
                    "name": "stakedEth",
                    "type": "uint256",
                    "internalType": "uint256"
                },
                {
                    "name": "borrowedUsdt",
                    "type": "uint256",
                    "internalType": "uint256"
                }
            ],
            "stateMutability": "view"
        },
        {
            "type": "function",
            "name": "withdrawCollateralEth",
            "inputs": [
                {
                    "name": "amount",
                    "type": "uint256",
                    "internalType": "uint256"
                }
            ],
            "outputs": [],
            "stateMutability": "nonpayable"
        },
        {
            "type": "event",
            "name": "ETHCollateralWithdrawn",
            "inputs": [
                {
                    "name": "user",
                    "type": "address",
                    "indexed": true,
                    "internalType": "address"
                },
                {
                    "name": "amount",
                    "type": "uint256",
                    "indexed": false,
                    "internalType": "uint256"
                }
            ],
            "anonymous": false
        },
        {
            "type": "event",
            "name": "EthStaked",
            "inputs": [
                {
                    "name": "user",
                    "type": "address",
                    "indexed": true,
                    "internalType": "address"
                },
                {
                    "name": "ethAmount",
                    "type": "uint256",
                    "indexed": false,
                    "internalType": "uint256"
                }
            ],
            "anonymous": false
        },
        {
            "type": "event",
            "name": "USDBorrowed",
            "inputs": [
                {
                    "name": "user",
                    "type": "address",
                    "indexed": true,
                    "internalType": "address"
                },
                {
                    "name": "usdAmount",
                    "type": "uint256",
                    "indexed": false,
                    "internalType": "uint256"
                }
            ],
            "anonymous": false
        },
        {
            "type": "event",
            "name": "USDRepaid",
            "inputs": [
                {
                    "name": "user",
                    "type": "address",
                    "indexed": true,
                    "internalType": "address"
                },
                {
                    "name": "usdAmount",
                    "type": "uint256",
                    "indexed": false,
                    "internalType": "uint256"
                }
            ],
            "anonymous": false
        }
    ],
    "bytecode": {
        "object": "0x608060405234801561000f575f80fd5b50604051611b99380380611b99833981810160405281019061003191906100d4565b805f806101000a81548173ffffffffffffffffffffffffffffffffffffffff021916908373ffffffffffffffffffffffffffffffffffffffff160217905550506100ff565b5f80fd5b5f73ffffffffffffffffffffffffffffffffffffffff82169050919050565b5f6100a38261007a565b9050919050565b6100b381610099565b81146100bd575f80fd5b50565b5f815190506100ce816100aa565b92915050565b5f602082840312156100e9576100e8610076565b5b5f6100f6848285016100c0565b91505092915050565b611a8d8061010c5f395ff3fe6080604052600436106100a6575f3560e01c806390a8ae9b1161006357806390a8ae9b146101965780639ae21965146101c0578063a87430ba146101fc578063baf4b79514610239578063d591cd9614610275578063e1bf0a4b1461029f576100a6565b80630fb9f035146100aa5780634aed0980146100d45780635c2e3de2146100fc57806362965d8e14610138578063685398e7146101625780637a5f0dc41461018c575b5f80fd5b3480156100b5575f80fd5b506100be6102c7565b6040516100cb9190611014565b60405180910390f35b3480156100df575f80fd5b506100fa60048036038101906100f59190611064565b6102ea565b005b348015610107575f80fd5b50610122600480360381019061011d9190611064565b610540565b60405161012f919061109e565b60405180910390f35b348015610143575f80fd5b5061014c610a64565b604051610159919061109e565b60405180910390f35b34801561016d575f80fd5b50610176610a69565b604051610183919061109e565b60405180910390f35b610194610b07565b005b3480156101a1575f80fd5b506101aa610bee565b6040516101b7919061109e565b60405180910390f35b3480156101cb575f80fd5b506101e660048036038101906101e19190611064565b610bf3565b6040516101f3919061109e565b60405180910390f35b348015610207575f80fd5b50610222600480360381019061021d91906110f2565b610bfc565b60405161023092919061111d565b60405180910390f35b348015610244575f80fd5b5061025f600480360381019061025a91906110f2565b610c1c565b60405161026c919061109e565b60405180910390f35b348015610280575f80fd5b50610289610d6b565b604051610296919061109e565b60405180910390f35b3480156102aa575f80fd5b506102c560048036038101906102c09190611064565b610d78565b005b5f8054906101000a900473ffffffffffffffffffffffffffffffffffffffff1681565b5f811161032c576040517f08c379a0000000000000000000000000000000000000000000000000000000008152600401610323906111c4565b60405180910390fd5b5f60015f3373ffffffffffffffffffffffffffffffffffffffff1673ffffffffffffffffffffffffffffffffffffffff1681526020019081526020015f2090505f8160010154116103b2576040517f08c379a00000000000000000000000000000000000000000000000000000000081526004016103a99061122c565b60405180910390fd5b80600101548211156103f9576040517f08c379a00000000000000000000000000000000000000000000000000000000081526004016103f0906112ba565b60405180910390fd5b5f8054906101000a900473ffffffffffffffffffffffffffffffffffffffff1673ffffffffffffffffffffffffffffffffffffffff166323b872dd3330856040518463ffffffff1660e01b8152600401610455939291906112e7565b6020604051808303815f875af1158015610471573d5f803e3d5ffd5b505050506040513d601f19601f820116820180604052508101906104959190611351565b6104d4576040517f08c379a00000000000000000000000000000000000000000000000000000000081526004016104cb906113c6565b60405180910390fd5b81816001015f8282546104e79190611411565b925050819055503373ffffffffffffffffffffffffffffffffffffffff167fb7efcc12f3d3e74e33995ff303aca806b9428989809e60a4e5a4d465832966e483604051610534919061109e565b60405180910390a25050565b5f8060015f3373ffffffffffffffffffffffffffffffffffffffff1673ffffffffffffffffffffffffffffffffffffffff1681526020019081526020015f2090505f815f0154116105c6576040517f08c379a00000000000000000000000000000000000000000000000000000000081526004016105bd9061148e565b60405180910390fd5b5f8311610608576040517f08c379a00000000000000000000000000000000000000000000000000000000081526004016105ff906114f6565b60405180910390fd5b5f68056bc75e2d631000006032686c6b935b8bbd400000845f015461062d9190611514565b6106379190611514565b6106419190611582565b90505f61064d82610bf3565b90505f8360010154836106609190611411565b9050808611156106a5576040517f08c379a000000000000000000000000000000000000000000000000000000000815260040161069c906115fc565b60405180910390fd5b5f6106af33610c1c565b11156106d45785846001015f8282546106c8919061161a565b9250508190555061070f565b6040517f08c379a0000000000000000000000000000000000000000000000000000000008152600401610706906116bd565b60405180910390fd5b5f805f9054906101000a900473ffffffffffffffffffffffffffffffffffffffff1673ffffffffffffffffffffffffffffffffffffffff166370a08231306040518263ffffffff1660e01b815260040161076991906116db565b602060405180830381865afa158015610784573d5f803e3d5ffd5b505050506040513d601f19601f820116820180604052508101906107a89190611708565b905086811061088f575f8054906101000a900473ffffffffffffffffffffffffffffffffffffffff1673ffffffffffffffffffffffffffffffffffffffff1663a9059cbb33896040518363ffffffff1660e01b815260040161080b929190611733565b6020604051808303815f875af1158015610827573d5f803e3d5ffd5b505050506040513d601f19601f8201168201806040525081019061084b9190611351565b61088a576040517f08c379a0000000000000000000000000000000000000000000000000000000008152600401610881906117a4565b60405180910390fd5b610a09565b5f818861089c9190611411565b90505f821115610980575f8054906101000a900473ffffffffffffffffffffffffffffffffffffffff1673ffffffffffffffffffffffffffffffffffffffff1663a9059cbb33846040518363ffffffff1660e01b8152600401610900929190611733565b6020604051808303815f875af115801561091c573d5f803e3d5ffd5b505050506040513d601f19601f820116820180604052508101906109409190611351565b61097f576040517f08c379a0000000000000000000000000000000000000000000000000000000008152600401610976906117a4565b60405180910390fd5b5b5f8054906101000a900473ffffffffffffffffffffffffffffffffffffffff1673ffffffffffffffffffffffffffffffffffffffff166340c10f1933836040518363ffffffff1660e01b81526004016109da929190611733565b5f604051808303815f87803b1580156109f1575f80fd5b505af1158015610a03573d5f803e3d5ffd5b50505050505b3373ffffffffffffffffffffffffffffffffffffffff167f5abc9a9c4616711eb03d720e050325118645a3695a5e75b5b10a29e2e217fe0388604051610a4f919061109e565b60405180910390a28295505050505050919050565b603281565b5f805f9054906101000a900473ffffffffffffffffffffffffffffffffffffffff1673ffffffffffffffffffffffffffffffffffffffff166370a08231306040518263ffffffff1660e01b8152600401610ac391906116db565b602060405180830381865afa158015610ade573d5f803e3d5ffd5b505050506040513d601f19601f82011682018060405250810190610b029190611708565b905090565b5f3411610b49576040517f08c379a0000000000000000000000000000000000000000000000000000000008152600401610b409061180c565b60405180910390fd5b3460015f3373ffffffffffffffffffffffffffffffffffffffff1673ffffffffffffffffffffffffffffffffffffffff1681526020019081526020015f205f015f828254610b97919061161a565b925050819055503373ffffffffffffffffffffffffffffffffffffffff167f1c0917c3a343a300b56473c59fa8355d3326f2c73472679a5b4cd5d6e0390c8034604051610be4919061109e565b60405180910390a2565b604b81565b5f819050919050565b6001602052805f5260405f205f91509050805f0154908060010154905082565b5f806f4b3b4ca85a86c47a098a2240000000006032686c6b935b8bbd40000060015f8773ffffffffffffffffffffffffffffffffffffffff1673ffffffffffffffffffffffffffffffffffffffff1681526020019081526020015f205f0154610c859190611514565b610c8f9190611514565b610c999190611582565b905080670de0b6b3a764000060015f8673ffffffffffffffffffffffffffffffffffffffff1673ffffffffffffffffffffffffffffffffffffffff1681526020019081526020015f2060010154610cf09190611582565b10610cfe575f915050610d66565b5f670de0b6b3a764000060015f8673ffffffffffffffffffffffffffffffffffffffff1673ffffffffffffffffffffffffffffffffffffffff1681526020019081526020015f2060010154610d539190611582565b82610d5e9190611411565b905080925050505b919050565b686c6b935b8bbd40000081565b5f8111610dba576040517f08c379a0000000000000000000000000000000000000000000000000000000008152600401610db19061189a565b60405180910390fd5b5f60015f3373ffffffffffffffffffffffffffffffffffffffff1673ffffffffffffffffffffffffffffffffffffffff1681526020019081526020015f2090505f816001015414610e40576040517f08c379a0000000000000000000000000000000000000000000000000000000008152600401610e3790611902565b60405180910390fd5b81815f01541015610e86576040517f08c379a0000000000000000000000000000000000000000000000000000000008152600401610e7d90611990565b60405180910390fd5b81815f015f828254610e989190611411565b925050819055505f3373ffffffffffffffffffffffffffffffffffffffff1683604051610ec4906119db565b5f6040518083038185875af1925050503d805f8114610efe576040519150601f19603f3d011682016040523d82523d5f602084013e610f03565b606091505b5050905080610f47576040517f08c379a0000000000000000000000000000000000000000000000000000000008152600401610f3e90611a39565b60405180910390fd5b3373ffffffffffffffffffffffffffffffffffffffff167f5b0743acabce0ea09498b3c2598ed444f80ef6513a2029d7d9aaed87064d1edb84604051610f8d919061109e565b60405180910390a2505050565b5f73ffffffffffffffffffffffffffffffffffffffff82169050919050565b5f819050919050565b5f610fdc610fd7610fd284610f9a565b610fb9565b610f9a565b9050919050565b5f610fed82610fc2565b9050919050565b5f610ffe82610fe3565b9050919050565b61100e81610ff4565b82525050565b5f6020820190506110275f830184611005565b92915050565b5f80fd5b5f819050919050565b61104381611031565b811461104d575f80fd5b50565b5f8135905061105e8161103a565b92915050565b5f602082840312156110795761107861102d565b5b5f61108684828501611050565b91505092915050565b61109881611031565b82525050565b5f6020820190506110b15f83018461108f565b92915050565b5f6110c182610f9a565b9050919050565b6110d1816110b7565b81146110db575f80fd5b50565b5f813590506110ec816110c8565b92915050565b5f602082840312156111075761110661102d565b5b5f611114848285016110de565b91505092915050565b5f6040820190506111305f83018561108f565b61113d602083018461108f565b9392505050565b5f82825260208201905092915050565b7f526570617920616d6f756e74206d7573742062652067726561746572207468615f8201527f6e207a65726f0000000000000000000000000000000000000000000000000000602082015250565b5f6111ae602683611144565b91506111b982611154565b604082019050919050565b5f6020820190508181035f8301526111db816111a2565b9050919050565b7f596f75206469646e7420626f72726f77207573640000000000000000000000005f82015250565b5f611216601483611144565b9150611221826111e2565b602082019050919050565b5f6020820190508181035f8301526112438161120a565b9050919050565b7f4f766572207061796d656e74206e6f7420737570706f727465642063757272655f8201527f6e746c7900000000000000000000000000000000000000000000000000000000602082015250565b5f6112a4602483611144565b91506112af8261124a565b604082019050919050565b5f6020820190508181035f8301526112d181611298565b9050919050565b6112e1816110b7565b82525050565b5f6060820190506112fa5f8301866112d8565b61130760208301856112d8565b611314604083018461108f565b949350505050565b5f8115159050919050565b6113308161131c565b811461133a575f80fd5b50565b5f8151905061134b81611327565b92915050565b5f602082840312156113665761136561102d565b5b5f6113738482850161133d565b91505092915050565b7f5472616e73666572204661696c656400000000000000000000000000000000005f82015250565b5f6113b0600f83611144565b91506113bb8261137c565b602082019050919050565b5f6020820190508181035f8301526113dd816113a4565b9050919050565b7f4e487b71000000000000000000000000000000000000000000000000000000005f52601160045260245ffd5b5f61141b82611031565b915061142683611031565b925082820390508181111561143e5761143d6113e4565b5b92915050565b7f4e6f20455448207374616b6564000000000000000000000000000000000000005f82015250565b5f611478600d83611144565b915061148382611444565b602082019050919050565b5f6020820190508181035f8301526114a58161146c565b9050919050565b7f43686169726d616e2c207765206e6f2064657920706c61792068657265206e615f82015250565b5f6114e0602083611144565b91506114eb826114ac565b602082019050919050565b5f6020820190508181035f83015261150d816114d4565b9050919050565b5f61151e82611031565b915061152983611031565b925082820261153781611031565b9150828204841483151761154e5761154d6113e4565b5b5092915050565b7f4e487b71000000000000000000000000000000000000000000000000000000005f52601260045260245ffd5b5f61158c82611031565b915061159783611031565b9250826115a7576115a6611555565b5b828204905092915050565b7f426f72726f7720616d6f756e742065786365656473204c5456206c696d6974005f82015250565b5f6115e6601f83611144565b91506115f1826115b2565b602082019050919050565b5f6020820190508181035f830152611613816115da565b9050919050565b5f61162482611031565b915061162f83611031565b9250828201905080821115611647576116466113e4565b5b92915050565b7f596f75206861766520657863656564656420796f757220626f72726f77206c695f8201527f6d69740000000000000000000000000000000000000000000000000000000000602082015250565b5f6116a7602383611144565b91506116b28261164d565b604082019050919050565b5f6020820190508181035f8301526116d48161169b565b9050919050565b5f6020820190506116ee5f8301846112d8565b92915050565b5f815190506117028161103a565b92915050565b5f6020828403121561171d5761171c61102d565b5b5f61172a848285016116f4565b91505092915050565b5f6040820190506117465f8301856112d8565b611753602083018461108f565b9392505050565b7f5472616e73666572206661696c656400000000000000000000000000000000005f82015250565b5f61178e600f83611144565b91506117998261175a565b602082019050919050565b5f6020820190508181035f8301526117bb81611782565b9050919050565b7f4e6f20636f6c6c61746572616c2070726f7669646564000000000000000000005f82015250565b5f6117f6601683611144565b9150611801826117c2565b602082019050919050565b5f6020820190508181035f830152611823816117ea565b9050919050565b7f45544820616d6f756e74206d7573742062652067726561746572207468616e205f8201527f3000000000000000000000000000000000000000000000000000000000000000602082015250565b5f611884602183611144565b915061188f8261182a565b604082019050919050565b5f6020820190508181035f8301526118b181611878565b9050919050565b7f426f72726f7765642055534454206e6f742066756c6c792072657061696400005f82015250565b5f6118ec601e83611144565b91506118f7826118b8565b602082019050919050565b5f6020820190508181035f830152611919816118e0565b9050919050565b7f596f752063616e2774206c69717569646174652075732062726f2c20637574205f8201527f796f757220636f6174206163636f7264696e676c790000000000000000000000602082015250565b5f61197a603583611144565b915061198582611920565b604082019050919050565b5f6020820190508181035f8301526119a78161196e565b9050919050565b5f81905092915050565b50565b5f6119c65f836119ae565b91506119d1826119b8565b5f82019050919050565b5f6119e5826119bb565b9150819050919050565b7f455448207472616e73666572206661696c6564000000000000000000000000005f82015250565b5f611a23601383611144565b9150611a2e826119ef565b602082019050919050565b5f6020820190508181035f830152611a5081611a17565b905091905056fea264697066735822122094dc300d5ee00ebe3cb5739f3b20073f7b377b42d73e83a11bac510ce79f8f1f64736f6c63430008190033",
        "linkReferences": {}
    },
    "methodIdentifiers": {
        "ETH_PRICE_IN_USD()": "d591cd96",
        "LIQUIDATION_THRESHOLD()": "90a8ae9b",
        "LTV()": "62965d8e",
        "borrowUsd(uint256)": "5c2e3de2",
        "getContractUsdBal()": "685398e7",
        "howMuchYouCanStillBorrow(address)": "baf4b795",
        "makeVisibleInt(uint256)": "9ae21965",
        "mockusdt()": "0fb9f035",
        "repayUsd(uint256)": "4aed0980",
        "stakeEth()": "7a5f0dc4",
        "users(address)": "a87430ba",
        "withdrawCollateralEth(uint256)": "e1bf0a4b"
    },
    "id": 22
}