{"abi":[{"type":"constructor","inputs":[{"name":"_price","type":"int256","internalType":"int256"}],"stateMutability":"nonpayable"},{"type":"function","name":"decimals","inputs":[],"outputs":[{"name":"","type":"uint8","internalType":"uint8"}],"stateMutability":"pure"},{"type":"function","name":"description","inputs":[],"outputs":[{"name":"","type":"string","internalType":"string"}],"stateMutability":"pure"},{"type":"function","name":"getRoundData","inputs":[{"name":"","type":"uint80","internalType":"uint80"}],"outputs":[{"name":"","type":"uint80","internalType":"uint80"},{"name":"","type":"int256","internalType":"int256"},{"name":"","type":"uint256","internalType":"uint256"},{"name":"","type":"uint256","internalType":"uint256"},{"name":"","type":"uint80","internalType":"uint80"}],"stateMutability":"pure"},{"type":"function","name":"latestRoundData","inputs":[],"outputs":[{"name":"","type":"uint80","internalType":"uint80"},{"name":"answer","type":"int256","internalType":"int256"},{"name":"","type":"uint256","internalType":"uint256"},{"name":"","type":"uint256","internalType":"uint256"},{"name":"","type":"uint80","internalType":"uint80"}],"stateMutability":"view"},{"type":"function","name":"setPrice","inputs":[{"name":"_price","type":"int256","internalType":"int256"}],"outputs":[],"stateMutability":"nonpayable"},{"type":"function","name":"version","inputs":[],"outputs":[{"name":"","type":"uint256","internalType":"uint256"}],"stateMutability":"pure"}],"bytecode":{"object":"0x6080604052348015600e575f80fd5b5060405161054e38038061054e8339818101604052810190602e9190606b565b805f81905550506091565b5f80fd5b5f819050919050565b604d81603d565b81146056575f80fd5b50565b5f815190506065816046565b92915050565b5f60208284031215607d57607c6039565b5b5f6088848285016059565b91505092915050565b6104b08061009e5f395ff3fe608060405234801561000f575f80fd5b5060043610610060575f3560e01c8063313ce5671461006457806354fd4d50146100825780637284e416146100a05780639a6fc8f5146100be578063f7a30806146100f2578063feaf968c1461010e575b5f80fd5b61006c610130565b60405161007991906101fd565b60405180910390f35b61008a610138565b604051610097919061022e565b60405180910390f35b6100a8610140565b6040516100b591906102b7565b60405180910390f35b6100d860048036038101906100d3919061031a565b61017d565b6040516100e995949392919061036c565b60405180910390f35b61010c600480360381019061010791906103e7565b6101bd565b005b6101166101c6565b60405161012795949392919061036c565b60405180910390f35b5f6012905090565b5f6001905090565b60606040518060400160405280600f81526020017f4d6f636b2041676772656761746f720000000000000000000000000000000000815250905090565b5f805f805f6040517f08c379a00000000000000000000000000000000000000000000000000000000081526004016101b49061045c565b60405180910390fd5b805f8190555050565b5f805f805f805f545f425f945094509450945094509091929394565b5f60ff82169050919050565b6101f7816101e2565b82525050565b5f6020820190506102105f8301846101ee565b92915050565b5f819050919050565b61022881610216565b82525050565b5f6020820190506102415f83018461021f565b92915050565b5f81519050919050565b5f82825260208201905092915050565b8281835e5f83830152505050565b5f601f19601f8301169050919050565b5f61028982610247565b6102938185610251565b93506102a3818560208601610261565b6102ac8161026f565b840191505092915050565b5f6020820190508181035f8301526102cf818461027f565b905092915050565b5f80fd5b5f69ffffffffffffffffffff82169050919050565b6102f9816102db565b8114610303575f80fd5b50565b5f81359050610314816102f0565b92915050565b5f6020828403121561032f5761032e6102d7565b5b5f61033c84828501610306565b91505092915050565b61034e816102db565b82525050565b5f819050919050565b61036681610354565b82525050565b5f60a08201905061037f5f830188610345565b61038c602083018761035d565b610399604083018661021f565b6103a6606083018561021f565b6103b36080830184610345565b9695505050505050565b6103c681610354565b81146103d0575f80fd5b50565b5f813590506103e1816103bd565b92915050565b5f602082840312156103fc576103fb6102d7565b5b5f610409848285016103d3565b91505092915050565b7f4e6f7420696d706c656d656e74656400000000000000000000000000000000005f82015250565b5f610446600f83610251565b915061045182610412565b602082019050919050565b5f6020820190508181035f8301526104738161043a565b905091905056fea2646970667358221220e168e1e3aa44b1b64bc59cd3b508b73166cf0ef49978299dbf9e7779cc9c1a1a64736f6c63430008190033","linkReferences":{}},"methodIdentifiers":{"decimals()":"313ce567","description()":"7284e416","getRoundData(uint80)":"9a6fc8f5","latestRoundData()":"feaf968c","setPrice(int256)":"f7a30806","version()":"54fd4d50"},"id":39}