{"abi":[{"type":"constructor","inputs":[{"name":"_price","type":"int256","internalType":"int256"}],"stateMutability":"nonpayable"},{"type":"function","name":"decimals","inputs":[],"outputs":[{"name":"","type":"uint8","internalType":"uint8"}],"stateMutability":"pure"},{"type":"function","name":"description","inputs":[],"outputs":[{"name":"","type":"string","internalType":"string"}],"stateMutability":"pure"},{"type":"function","name":"getRoundData","inputs":[{"name":"","type":"uint80","internalType":"uint80"}],"outputs":[{"name":"","type":"uint80","internalType":"uint80"},{"name":"","type":"int256","internalType":"int256"},{"name":"","type":"uint256","internalType":"uint256"},{"name":"","type":"uint256","internalType":"uint256"},{"name":"","type":"uint80","internalType":"uint80"}],"stateMutability":"pure"},{"type":"function","name":"latestRoundData","inputs":[],"outputs":[{"name":"","type":"uint80","internalType":"uint80"},{"name":"answer","type":"int256","internalType":"int256"},{"name":"","type":"uint256","internalType":"uint256"},{"name":"","type":"uint256","internalType":"uint256"},{"name":"","type":"uint80","internalType":"uint80"}],"stateMutability":"view"},{"type":"function","name":"setPrice","inputs":[{"name":"_price","type":"int256","internalType":"int256"}],"outputs":[],"stateMutability":"nonpayable"},{"type":"function","name":"version","inputs":[],"outputs":[{"name":"","type":"uint256","internalType":"uint256"}],"stateMutability":"pure"}],"bytecode":{"object":"0x608034604d57601f61026438819003918201601f19168301916001600160401b03831184841017605157808492602094604052833981010312604d57515f556040516101fe90816100668239f35b5f80fd5b634e487b7160e01b5f52604160045260245ffdfe60806040908082526004361015610014575f80fd5b5f3560e01c908163313ce567146101af5750806354fd4d50146101945780637284e4161461010b5780639a6fc8f5146100af578063f7a30806146100975763feaf968c14610060575f80fd5b34610093575f3660031901126100935760a0905f80549180519282845260208401528201524260608201525f6080820152f35b5f80fd5b34610093576020366003190112610093576004355f55005b50346100935760203660031901126100935760043569ffffffffffffffffffff811603610093575162461bcd60e51b815260206004820152600f60248201526e139bdd081a5b5c1b195b595b9d1959608a1b6044820152606490fd5b5034610093575f3660031901126100935780519080820182811067ffffffffffffffff821117610180578152600f825260208201916e26b7b1b59020b3b3b932b3b0ba37b960891b83528151928391602083525180918160208501528484015e5f828201840152601f01601f19168101030190f35b634e487b7160e01b5f52604160045260245ffd5b5034610093575f366003190112610093576020905160018152f35b34610093575f3660031901126100935780601260209252f3fea2646970667358221220884860a475b6350ab1b6bcd1c6621c54d01135871efdbe38f9b7f5fc80447dbd64736f6c63430008190033","linkReferences":{}},"methodIdentifiers":{"decimals()":"313ce567","description()":"7284e416","getRoundData(uint80)":"9a6fc8f5","latestRoundData()":"feaf968c","setPrice(int256)":"f7a30806","version()":"54fd4d50"},"id":33}